:1000000000000200DD02000059030000EF32000092
:100010005D0300005F0300006103000000000000BA
:10002000000000000000000000000000630300006A
:100030006503000000000000670300006903000082
:10004000FF2C0000072D00000F2D0000172D0000D1
:100050001F2D0000272D00002F2D0000372D000040
:100060003F2D0000472D00004F2D0000572D0000B0
:100070005F2D0000672D00006F2D0000772D000020
:100080007F2D0000872D00008F2D0000972D000090
:100090009F2D0000A72D0000AF2D0000B72D000000
:1000A000BF2D0000C72D0000CF2D0000D72D000070
:1000B000DF2D0000E72D0000EF2D0000F72D0000E0
:1000C000FF2D0000072E00000F2E0000172E00004D
:1000D0001F2E0000272E00002F2E0000372E0000BC
:1000E0003F2E0000472E00004F2E0000572E00002C
:1000F0005F2E0000672E00006F2E0000772E00009C
:100100007F2E0000872E00008F2E0000972E00000B
:100110009F2E0000A72E0000AF2E0000B72E00007B
:10012000BF2E0000C72E0000CF2E0000D72E0000EB
:10013000DF2E0000E72E0000EF2E0000F72E00005B
:10014000FF2E0000072F00000F2F0000172F0000C8
:100150001F2F0000272F00002F2F0000372F000037
:100160003F2F0000472F00004F2F0000572F0000A7
:100170005F2F0000672F00006F2F0000772F000017
:100180007F2F0000872F00008F2F0000972F000087
:100190009F2F0000A72F0000AF2F0000B72F0000F7
:1001A000BF2F0000C72F0000CF2F0000D72F000067
:1001B000DF2F0000E72F0000EF2F0000F72F0000D7
:1001C000FF2F0000073000000F3000001730000044
:1001D0001F300000273000002F30000037300000B3
:1001E0003F300000473000004F3000005730000023
:1001F0005F300000673000006F3000007730000093
:100200007F300000873000008F3000009730000002
:100210009F300000A7300000AF300000B730000072
:10022000BF300000C73000003D060000CF300000A6
:10023000D7300000DF300000E7300000EF30000072
:10024000F7300000FF300000073100000F310000E0
:10025000173100001F310000273100002F3100004E
:10026000373100003F310000473100004F310000BE
:10027000573100005F310000673100006F3100002E
:10028000773100007F310000873100008F3100009E
:10029000973100009F310000A7310000AF3100000E
:1002A0009C4100009C410000040000009C410000B3
:1002B00000000020000000009C4100000000202001
:1002C00000000000A0410000F0000000000000203D
:1002D00000000000000020200000000010B572B6F1
:1002E00001F0ECF90D4B07E003F10C049A68596832
:1002F000186800F019F82346094A9342F4D306E03F
:100300001C46596854F8080B00F01DF82346054AAE
:100310009342F5D362B603F074F9FEE7A002000041
:10032000C4020000DC020000002393420AD210B491
:1003300050F8044B41F8044B04339342F8D35DF872
:10034000044B7047704700238B4204D2002240F8D0
:10035000042B0433F8E77047FEE7FEE7FEE7FEE70D
:10036000FEE7FEE7FEE7FEE7FEE7FEE780B584B0C6
:1003700000AF786039607B68002B02D1104801F033
:100380007FFF3B68002B02D10E4801F079FF0E4B36
:100390001B68002B01D100230DE03A6879680B48F7
:1003A00003F067F80346FB81FB89002B01D13B6812
:1003B00001E04FF0FF3318461037BD4680BD00BF47
:1003C000DC3B0000043C0000A0410000A44200000F
:1003D0000FB480B5A4B000AF0023C7F88830002365
:1003E000C7F88C3000237B6007F108037C220021D2
:1003F000184603F00DF9124B1B68002B16D007F1BD
:100400009C03C7F884303A1D0E4BD7F88410D7F8F8
:10041000980002F031FBC7F88800D7F888203B1D10
:1004200011461846FFF7A2FFC7F88C00D7F88C30AA
:1004300018469037BD46BDE8804004B0704700BF05
:10044000A04100008126000080B483B000AF0346C5
:10045000FB80B7F90630002B0BDBFB8803F01F0293
:100460000749B7F906305B09012000FA02F241F8AA
:10047000232000BF0C37BD465DF8047B704700BFEA
:1004800000E100E080B483B000AF03463960FB8038
:10049000B7F90630002B0ADB3B68DAB20C49B7F932
:1004A00006301201D2B20B4483F800230AE03B6805
:1004B000DAB20849FB8803F00F03043B1201D2B201
:1004C0000B441A7600BF0C37BD465DF8047B7047BD
:1004D00000E100E000ED00E080B582B000AF7860A0
:1004E0007B68002B02D1054801F0CAFE7B68002220
:1004F0001A7000BF0837BD4680BD00BF2C3C00000D
:1005000080B584B000AF0A4B7B600923BB60012338
:100510003B730023BB7300237B737868B9683B1D72
:1005200008331A4600F05EFE00BF1037BD4680BD9E
:1005300000801B4080B582B000AF3B1D1846FFF71E
:10054000CBFF3B1D1946074801F06EF802217A20C7
:10055000FFF798FF7A2002F02EFE00231846083796
:10056000BD4680BD00400840F0B583B000AF0346F3
:100570003960FB713B681C464FF00005042000F019
:10058000DFF903461A464FF0000302FB05F004FBB7
:1005900003F14618A4FB0201731819460D4A4FF0E7
:1005A000000303F01DFA02460B46FB7919460A4880
:1005B00002F06DFEFB7902221946074802F020FE88
:1005C000FB791946044802F076FE002318460C37E2
:1005D000BD46F0BD40420F000040084080B582B0EB
:1005E00000AF03F008F802F0C7FF02F0D2FF02F0FC
:1005F00050FF1048FFF7ECFEFFF782FFFFF79AFF6E
:100600000D490020FFF7B0FF0023FB800DE0002321
:10061000BB8002E0BB880133BB80BB884FF6FF7212
:100620009342F7D1FB880133FB80FB88092BEED97D
:10063000EAE700BFA03C000040420F0080B500AFD9
:1006400000210C4802F0F9FD0346002B09D00122DD
:100650000021084802F006FE4FF40071064802F03F
:10066000C0FDBFF34F8F00BFBFF36F8F00BF00BF50
:1006700080BD00BF0040084000801B4080B400AF38
:10068000074BD3F8703203F01003002B02D1054B57
:100690001B6800E0044B1846BD465DF8047B7047BC
:1006A00000800D40A441000000366E0180B582B08C
:1006B00000AF364B5B6903F00073002B2BD0334B3C
:1006C0009B6903F44053B3F5005F11D0B3F5005FAD
:1006D00013D8002B03D0B3F5805F05D00DE02C4874
:1006E00000F098FA78600BE0FFF7C8FF786007E049
:1006F000284800F08FFA786002E000237B6000BF9A
:10070000224B5B69DB0E03F0070301337A68B2FB0F
:10071000F3F37B6034E01D4B9B6903F44023B3F596
:10072000402F1DD0B3F5402F27D8B3F5002F12D09E
:10073000B3F5002F21D8002B03D0B3F5802F05D0BF
:100740001BE0144800F066FA786019E0022000F01F
:1007500045FC786014E0002000F040FC78600FE079
:100760000D2000F057FA0246084B1B6903F00703FF
:100770000133B2FBF3F37B6002E000237B6000BF38
:100780007B6818460837BD4680BD00BF00C00F40DB
:100790000D0010000D00300080B582B000AF0346A0
:1007A000FB71FB7983F00103DBB2002B02D113480C
:1007B00001F066FD124B4FF08042C3F8582100BF94
:1007C0000F4BD3F8703203F48033002BF8D00C4B6E
:1007D0004FF48032C3F8542100BF094BD3F8503195
:1007E00003F40043002BF8D0054B4FF48032C3F8DC
:1007F000582100BF0837BD4680BD00BFB03C000097
:1008000000800D4080B483B000AF0346FB71FB79DC
:10081000002B04D1074B1022C3F8742203E0054BD0
:100820001022C3F8782200BF0C37BD465DF8047B68
:10083000704700BF00800D4080B400AF064BD3F876
:100840007032054A43F00103C2F8703200BFBD4662
:100850005DF8047B704700BF00800D4080B500AF9D
:10086000FFF724FF0246054B5B699B0A03F0070371
:100870000133B2FBF3F3184680BD00BF00C00F4048
:1008800080B582B000AF144B5B6903F04003002BCE
:100890000FD0114B5B6903F08003002B04D00120C3
:1008A00000F0F2FB786007E0022000F097FB786030
:1008B00002E0FFF7FBFE7860074B5B691B0C03F05F
:1008C000070301337A68B2FBF3F37B607B68184659
:1008D0000837BD4680BD00BF00C00F4080B500AFE7
:1008E000FFF7BCFF0246054B5B691B0A03F00303DD
:1008F0000133B2FBF3F3184680BD00BF00C00F40C8
:1009000080B582B000AF0D4BDB6903F04003002BD4
:1009100003D0FFF7B3FE786002E0FFF7DFFF7860F7
:10092000064BDB6903F03F0301337A68B2FBF3F354
:100930007B607B6818460837BD4680BD00C00F400D
:1009400080B584B000AF0346FB71FB79162B00F233
:10095000998001A252F823F0B5090000B509000002
:10096000BD090000C5090000CD090000D50900003F
:10097000DD090000E5090000EF090000F9090000A9
:10098000030A00000D0A0000170A0000210A0000F7
:100990002B0A0000350A00003F0A0000490A000047
:1009A000530A00005D0A0000670A0000710A000097
:1009B0007B0A0000FFF752FFF86066E0FFF760FF78
:1009C000F86062E0FFF78AFFF8605EE0FFF798FFEB
:1009D000F8605AE0FFF752FEF86056E002F09DFC26
:1009E000F86052E00D2000F015F9F8604DE029485C
:1009F00000F010F9F86048E0002000F045FBF860D6
:100A000043E0012000F040FBF8603EE0022000F0EF
:100A10003BFBF86039E0032000F036FBF86034E07F
:100A20001D4800F0F7F8F8602FE01C4800F0F2F8DD
:100A3000F8602AE0002000F0D1FAF86025E00120FB
:100A400000F0CCFAF86020E0022000F0C7FAF8606D
:100A50001BE0032000F0C2FAF86016E0104800F036
:100A6000D9F8F86011E00F4800F0D4F8F8600CE015
:100A70000D4800F0CFF8F86007E00C4800F0CAF825
:100A8000F86002E00023FB6000BFFB6818461037E7
:100A9000BD4680BD0D0010000D0020000D0030008F
:100AA0000D00E0001500E0000D0070000D00A0003A
:100AB00080B483B000AF7860154B1B6823F4E0323C
:100AC0007B681B799B039BB21343114A43F4803329
:100AD00013600F4B1A680F4B13407A68126802F0CC
:100AE0007F0213430A4A43F40053136000BF084BCC
:100AF0001B68002BFBDA064B1B68054A23F4803386
:100B0000136000BF0C37BD465DF8047B704700BF23
:100B100000800D4080CFFFFF80B400AF034B002268
:100B20001A6100BFBD465DF8047B704700800D4030
:100B300080B400AF034B00221A6200BFBD465DF8CF
:100B4000047B704700800D4080B400AF044B4FF42D
:100B500080521A6700BFBD465DF8047B704700BF36
:100B600000800D4080B400AF044B4FF48052C3F8B6
:100B7000A02000BFBD465DF8047B704700800D409B
:100B800080B485B000AF78607B689B7803F0030386
:100B9000FB601E4BD3F8E03023F4E0327B68DB7857
:100BA0009B039BB21343194A43F48033C2F8E030ED
:100BB0007B681B78002B03D0FB6843F40053FB6079
:100BC0007B685B78002B03D0FB6843F40013FB6069
:100BD0000E4BD3F8E0200E4B13400C49FA68134338
:100BE000C1F8E03000BF094BD3F8E030002BFADA4F
:100BF000064BD3F8E030054A23F48033C2F8E030E6
:100C000000BF1437BD465DF8047B704700800D407F
:100C1000FCEFFFFFB0B58AB000AF7860B74B07F1CB
:100C200008040FCB84E80F007968B54802F097FB01
:100C3000034683F00103DBB2002B01D00023C1E1A6
:100C40007968AF4802F0A9FB78627968AC4802F095
:100C50006DFB0346002B01D07B6AB3E17B68A94A98
:100C6000934200F09A817B68A64A934200F2A681E3
:100C70007B68A54A934200F081817B68A24A934237
:100C800000F29C817B68A14A934200F0EC807B6873
:100C90009E4A934200F292817B689D4A934271D0B2
:100CA0007B689B4A934200F289817B68994A934210
:100CB00020D07B68974A934200F280817B68964AF5
:100CC000934200F06D817B68934A934200F27681F3
:100CD0007B680D2B04D07B68904A934244D06DE131
:100CE000874B1B6803F07F037A6A02FB03F35B0800
:100CF0007B6266E17B6A18464FF00001804B1B6DFA
:100D00001A464FF0000302FB01F500FB03F42C44EC
:100D1000A0FB0223E1180B46C7E90623C7E9062317
:100D2000774B1B6E1A464FF00003D7E9060102F01D
:100D300057FE02460B46C7E90623714B1B6B03F0B7
:100D40000103002B05D07B6A162202FB03F37B62B2
:100D500005E07A6A13469B0013449B007B62BB69E3
:100D60007A6A13447B622CE1654B1B6903F0020332
:100D7000002B01D0162200E014227B6A02FB03F351
:100D80007B621EE15E4B1B6F03F07F033B627B6A5D
:100D900018464FF000015A4BD3F880301A464FF0F6
:100DA000000302FB01F500FB03F42C44A0FB02232B
:100DB000E1180B46C7E90623C7E90623504BD3F8D1
:100DC00090301A464FF00003D7E9060102F008FE02
:100DD00002460B46C7E906237B6A3A6A02FB03F226
:100DE000BB6913447B62464B1B6F03F4C013B3F51E
:100DF000801F13D0B3F5801F0DD8002B03D0B3F59F
:100E0000002F04D007E07B6A9B087B6207E07B6AC7
:100E10005B087B6203E0424801F032FA00BF384BC6
:100E2000D3F870213F4B13403E4A93420ED03D4AC7
:100E3000934213D8B3F5000F13D0B3F5000F0DD8BC
:100E4000002B0ED0B3F5004F04D007E07B6A9B085F
:100E50007B6207E07B6A5B087B6203E0324801F05B
:100E60000FFA00BFADE0264BD3F8A03003F07F03AC
:100E70003B627B6A18464FF00001214BD3F8B0303B
:100E80001A464FF0000302FB01F500FB03F42C446B
:100E9000A0FB0223E1180B46C7E90623C7E9062396
:100EA000174BD3F8C0301A464FF00003D7E90601BC
:100EB00002F096FD02460B46C7E906237B6A3A6AB2
:100EC00002FB03F2BB6913447B620D4BD3F8A030E5
:100ED00003F4C013B3F5801F2BD0B3F5801F25D8C2
:100EE000002B03D0B3F5002F04D01FE07B6A9B08D2
:100EF0007B621FE07B6A5B087B621BE0443D000075
:100F000000800D401500E0000D00E0000D00A00085
:100F10000D0070000D0030000D0020000D001000CD
:100F2000D43C000000808000F03C0000274801F025
:100F3000A7F900BF264BD3F8703103F04043B3F15B
:100F4000404F0ED0B3F1404F13D8B3F1004F13D040
:100F5000B3F1004F0DD8002B0ED0B3F1804F04D069
:100F600007E07B6A9B087B6207E07B6A5B087B6229
:100F700003E0184801F084F900BF22E0144BD3F8D5
:100F8000E03003F003033B623B6A9B0007F1280259
:100F9000134453F8203C7B6213E00F4B7B6210E05C
:100FA0000B4B1B6A03F00203002B01D0162200E05A
:100FB00014227B6A02FB03F37B6202E000237B6264
:100FC00000BF7B6A18462837BD46B0BD0C3D000007
:100FD00000800D40283D000040787D0180B584B040
:100FE00000AF0346FB712648FFF714FEF860FB795B
:100FF000032B36D801A252F823F000BF0D100000D9
:1010000021100000371000004D1000001D4BD3F8D8
:10101000003103F03F03FA68B2FBF3F3FB6023E017
:10102000184BD3F800311B0A03F03F03FA68B2FBF8
:10103000F3F3FB6018E0134BD3F800311B0C03F003
:101040003F03FA68B2FBF3F3FB600DE00D4BD3F8FE
:1010500000311B0E03F03F03FA68B2FBF3F3FB60B1
:1010600002E00023FB6000BFFA681346DB00134474
:101070005B00FB60FB6818461037BD4680BD00BFB3
:101080000D00300000800D4080B584B000AF0346F5
:10109000FB712648FFF7BEFDF860FB79032B36D8BD
:1010A00001A252F823F000BFB9100000CD100000DB
:1010B000E3100000F91000001D4BD3F8F03003F0EE
:1010C0003F03FA68B2FBF3F3FB6023E0184BD3F85D
:1010D000F0301B0A03F03F03FA68B2FBF3F3FB6046
:1010E00018E0134BD3F8F0301B0C03F03F03FA6801
:1010F000B2FBF3F3FB600DE00D4BD3F8F0301B0EA9
:1011000003F03F03FA68B2FBF3F3FB6002E0002355
:10111000FB6000BFFA681346DB0013445B00FB6012
:10112000FB6818461037BD4680BD00BF0D0010009B
:1011300000800D4080B586B000AF03460A46FB80B4
:1011400013467B71B7F906301B0A7B61FB8803F0FD
:101150001F033B617B69062B02D90D4801F090F813
:101160007B699A000B4B1344FB60FB681A680321F0
:101170003B6901FA03F3DB431A4079793B6901FAD1
:1011800003F31A43FB681A6000BF1837BD4680BDE1
:10119000543D000068C00F4080B584B000AF786057
:1011A0000023FB6009E00D4AFB6852F823307A689F
:1011B0009A4206D0FB680133FB60FB68052BF2D92D
:1011C00000E000BFFB68052B02D9054801F058F884
:1011D000FB6818461037BD4680BD00BF783D000053
:1011E0009C3D000080B586B000AFF860B9607A60C1
:1011F000F868FFF7D1FF78617B69052B0DD8214A8C
:101200007B6932F91330B3F1FF3F06D01D4A7B6989
:1012100032F91330184602F0DAF8FB685A690121F6
:10122000BB6801FA03F3DB431A40FB685A617B6831
:101230001B78002B0AD1FB685A680121BB6801FAB0
:1012400003F3DB431A40FB685A600FE07B685B786E
:101250001A46B968F86800F017F8FB685A68012167
:10126000BB6801FA03F31A43FB685A607B689B78FA
:101270001A46B968F86802F0B9F800BF1837BD46D9
:1012800080BD00BF903D000080B584B000AFF86025
:10129000B9601346FB71BB681F2B02D90E4800F0E2
:1012A000EFFFFB79002B0AD1FB681A680121BB68AC
:1012B00001FA03F3DB431A40FB681A6008E0FB689D
:1012C0001A680121BB6801FA03F31A43FB681A602C
:1012D00000BF1037BD4680BDD03D000080B487B050
:1012E00000AFF860B9601346FB71BB683B61FB68F7
:1012F000DA690121BB6801FA03F3DB431A40FB689A
:10130000DA61BB680F2B03D8FB680C337B6105E007
:10131000FB6810337B613B69103B3B61FB79013B10
:10132000042B52D801A252F823F000BF4113000051
:10133000591300007D130000A1130000B713000033
:101340007B691A683B695B00032101FA03F3DB4305
:101350001A407B691A6039E07B691A683B695B0057
:10136000032101FA03F3DB431A403B695B000121CF
:1013700001FA03F31A437B691A6027E07B691A6854
:101380003B695B00032101FA03F3DB431A403B692D
:101390005B00022101FA03F31A437B691A6015E02E
:1013A0007B691A683B695B00032101FA03F31A4366
:1013B0007B691A600AE0FB68DA690121BB6801FAFF
:1013C00003F31A43FB68DA6100E000BF00BF1C377B
:1013D000BD465DF8047B704780B586B000AFF8600D
:1013E000B9607A60BB68002B02D1144800F048FF56
:1013F000BB687B617B683B6111E000BFFB685B6998
:1014000003F40003002BF9D07B691B781A46FB68B4
:10141000DA617B6901337B613B69013B3B613B697D
:10142000002BEAD100BFFB685B6903F48003002B4B
:10143000F9D0002318461837BD4680BDEC3D0000AA
:1014400080B500AF054B1B68054A52681146054838
:101450009847BFF34F8F00BF00BF80BDCC41000055
:10146000A84100000040184080B500AF054B1B6844
:10147000054A9268114605489847BFF34F8F00BF51
:1014800000BF80BDCC410000A84100000080184092
:1014900080B500AF054B1B68054AD2681146054868
:1014A0009847BFF34F8F00BF00BF80BDCC41000005
:1014B000A841000000C0184080B500AF054B1B6874
:1014C000054A1269114605489847BFF34F8F00BF80
:1014D00000BF80BDCC410000A841000000001940C1
:1014E00080B500AF054B1B68054A52691146054897
:1014F0009847BFF34F8F00BF00BF80BDCC410000B5
:10150000A84100000040194080B500AF054B1B68A2
:10151000054A9269114605489847BFF34F8F00BFAF
:1015200000BF80BDCC410000A841000000801940F0
:1015300080B500AF054B1B68054AD26911460548C6
:101540009847BFF34F8F00BF00BF80BDCC41000064
:10155000A841000000C0194080B500AF054B1B68D2
:10156000054A126A114605489847BFF34F8F00BFDE
:1015700000BF80BDCC410000A841000000001A401F
:1015800080B586B000AF03460A46FB8013467B71E8
:10159000B7F906301B0A7B61FB8803F01F033B6130
:1015A0007B69062B02D90D4800F06AFE7B699A0020
:1015B0000B4B1344FB60FB681A6803213B6901FA7B
:1015C00003F3DB431A4079793B6901FA03F31A43C9
:1015D000FB681A6000BF1837BD4680BD543D00004F
:1015E00068C00F4080B584B000AF78600023FB6016
:1015F00006E00B4A7B68934206D0FB680133FB6030
:10160000FB68002BF5D000E000BFFB68002B02D088
:10161000044800F035FEFB6818461037BD4680BD13
:1016200000400840103E000080B584B000AF7860F4
:1016300039603B68002B02D11F4800F021FE78681A
:10164000FFF7D0FF4FF48673184601F0E0FE7B6889
:101650001B6823F002027B681A600023FB7312E010
:10166000FB7B7A681B01134403F584731A68FB7BC8
:1016700022F0070279681B010B4403F584731A609A
:10168000FB7B0133FB73FB7B032BE9D93B681B78A6
:10169000002B06D07B681B6823F001027B681A6070
:1016A00005E07B681B6843F001027B681A6000BF9D
:1016B0001037BD4680BD00BF443E000080B584B0F9
:1016C00000AF6D4BD3F888306B4A43F47003C2F817
:1016D0008830694B694A9A60694B1B899BB2684A9A
:1016E00023F001039BB21381664B1B899BB2654AB1
:1016F00023F001039BB21381614B1B889BB203F063
:101700000403002B07D05E4B1B889BB25C4A23F07E
:1017100004039BB213805B4B1B889BB203F0040352
:10172000002B07D0574B1B889BB2564A23F004036B
:101730009BB21380544B1B6803F40053002B03D05F
:10174000514B524A5A6007E04F4B4CF220525A60BC
:101750004D4B4DF628125A604B4B4FF6FF729A6074
:10176000494B1B6823F0A003474A43F02003136052
:10177000474B1B6803F00103002B05D0444B1B684B
:10178000434A23F0010313603B4B5B6903F40033CE
:10179000B3F5003F22D0384B5B6903F40033002BD4
:1017A0001BD1BFF34F8F00BFBFF36F8F00BF324B12
:1017B0000022C3F85022BFF34F8F00BFBFF36F8FDB
:1017C00000BF2D4B5B692C4A43F400335361BFF3D8
:1017D0004F8F00BFBFF36F8F00E000BF264B5B69E8
:1017E00003F48033B3F5803F3FD0234B5B6903F4B0
:1017F0008033002B38D1204B0022C3F88420BFF364
:101800004F8F00BF1C4BD3F88030FB60FB685B0B35
:10181000C3F30E03BB60FB68DB08C3F309037B6003
:10182000BB685A0143F6E07313407A689207124985
:101830001343C1F860327B685A1E7A60002BEFD1E7
:10184000BB685A1EBA60002BE5D1BFF34F8F00BFB3
:10185000094B5B69084A43F480335361BFF34F8FF0
:1018600000BFBFF36F8F00E000BF01F0DFFD00BFDE
:101870001037BD4680BD00BF00ED00E00000000055
:1018800000800B4000000D4000C00B4020C528D94F
:1018900010E000E080B586B000AFF860B9607A6013
:1018A000FB68002B02D1104800F0EAFCBB68002B5B
:1018B00002D10E4800F0E4FC7B68002B02D10C48FA
:1018C00000F0DEFCFB687B617B691B781A46094BE4
:1018D00053F822307A68B9681846FFF77DFD002377
:1018E00018461837BD4680BD883E0000A83E00005F
:1018F000C83E0000643E000080B586B000AFF860CE
:10190000B9607A60FB68002B02D1124800F0B8FC85
:10191000BB68002B02D1104800F0B2FC7B68002BA2
:1019200002D10E4800F0ACFCFB687B617B691B6850
:101930003B613B69002B02D1094800F0A1FC7B68A8
:10194000BA687969386901F078FD03461846183796
:10195000BD4680BDE83E00000C3F00002C3F00006B
:101960004C3F000080B586B000AFF860B9607A6087
:10197000FB68002B02D10E4800F082FCBB68002BF4
:1019800002D10C4800F07CFC7B68002B02D10A4895
:1019900000F076FCFB687B617B697A68B968184661
:1019A000FFF778FF034618461837BD4680BD00BFD5
:1019B0006C3F0000943F0000B83F000080B584B049
:1019C00000AF786039607B689B0EFB607B68DAB2A1
:1019D0001F4B13441A687B685B0BC3F30C017B68D5
:1019E0001B0A03F01F0301FA03F3DB4302EA0301BE
:1019F0007B681B0A03F01F033A689A407B685B0B05
:101A0000C3F30C007B681B0A03F01F0300FA03F307
:101A10001A407B68D8B20E4B0344184641EA0203D1
:101A20000360FB68202B02D90A4800F029FCFB6800
:101A3000202B09D000BF064B9A6CFB6822FA03F3F7
:101A400003F00103002BF6D100BF1037BD4680BD67
:101A500000C00F40DC3F000080B584B000AF78606C
:101A600039607B689B0EFB607B68DAB21F4B1344C6
:101A70001A687B685B0BC3F30C017B681B0A03F0DD
:101A80001F0301FA03F3DB4302EA03017B681B0A2D
:101A900003F01F033A689A407B685B0BC3F30C00AA
:101AA0007B681B0A03F01F0300FA03F31A407B68EC
:101AB000D8B20E4B0344184641EA02030360FB68A8
:101AC000202B02D90A4800F0DBFBFB68202B09D051
:101AD00000BF064B9A6C0121FB6801FA03F3134027
:101AE000002BF6D100BF1037BD4680BD00C00F40AF
:101AF0006040000080B586B000AF03460A46FB8018
:101B000013467B71B7F906301B0A7B61FB8803F033
:101B10001F033B617B69062B02D90D4800F0B0FB27
:101B20007B699A000B4B1344FB60FB681A68032126
:101B30003B6901FA03F3DB431A4079793B6901FA07
:101B400003F31A43FB681A6000BF1837BD4680BD17
:101B5000E440000068C00F4080B483B000AF7860FC
:101B6000044A7B68136000BF0C37BD465DF8047BF8
:101B7000704700BFA441000080B485B000AFF8609A
:101B8000B9601346FB71BA680C4B1340BB60FB791C
:101B9000002B06D0FB685A68BB681A43FB685A6082
:101BA00006E0FB685A68BB68DB431A40FB685A6072
:101BB00000BF1437BD465DF8047B704700F0FFFF9F
:101BC00080B485B000AF78600B46FB701346BB70E5
:101BD0007B689A680A4B1340FB60FB789B0603F016
:101BE0008062FB681A43BB781B0403F47F031A432B
:101BF0007B689A6000BF1437BD465DF8047B704770
:101C0000FFFF00FB80B500AFD84BD3F8C032D74AF6
:101C100043F48033C2F8C032D44BD3F8C032D34A35
:101C200023F40033C2F8C032D148FFF795FF0020FB
:101C3000FEF7B2FDFEF700FE0120FEF7E3FDCD4BFF
:101C40001B6823F0FF03CB4A43F07F03136001219D
:101C5000C948FFF7B3FE0121C848FFF7AFFE0021D6
:101C6000C748FFF7F9FE4FF4887001F019FC4FF4F4
:101C7000847001F015FC40F2162001F011FC4FF4C5
:101C8000067001F00DFC40F20E2001F009FC03216A
:101C9000BC48FFF7E1FE0121BB48FFF7DDFE002154
:101CA000BA48FFF7D9FE4FF48A7001F0F9FB4FF400
:101CB0008B7001F0F5FB182001F0F2FB1A2001F007
:101CC000EFFB4FF4867001F0EBFB0021B048FFF70B
:101CD000C3FE40F2026001F0E3FB0121AD48FFF7D3
:101CE000BBFE0021AC48FFF769FE40F2046001F042
:101CF000D7FB0121A948FFF7AFFE0021A848FFF755
:101D00005DFE40F20A6001F0CBFB0121A548FFF720
:101D1000A3FE0021A448FFF751FE40F2022001F08B
:101D2000BFFB0121A148FFF797FE0021A048FFF764
:101D300045FE4FF4807001F0B3FB4FF4817001F069
:101D4000AFFB4FF4827001F0ABFB4FF4837001F0F6
:101D5000A7FB03219748FFF77FFE02219648FFF774
:101D60002DFE162001F09CFB03219448FFF774FE22
:101D700002219348FFF722FE40F2125001F090FB3F
:101D800003219048FFF768FE01218F48FFF764FEAA
:101D900000218E48FFF712FE40F2145001F080FB44
:101DA00003218B48FFF758FE01218A48FFF754FEB4
:101DB00000218948FFF702FE40F2165001F070FB47
:101DC00003218648FFF748FE01218548FFF744FEBE
:101DD00000218448FFF7F2FD40F2062001F060FB8D
:101DE0004FF4027001F05CFB40F20A2001F058FB56
:101DF00000217D48FFF730FE00217C48FFF7DEFD23
:101E00000E2001F04DFB122001F04AFB102001F0E2
:101E100047FB142001F044FB01217548FFF71CFE2D
:101E200002217448FFF7CAFD4FF4A36001F038FBAC
:101E30001C2001F035FB0C2001F032FB4FF48C70BC
:101E400001F02EFB40F2023001F02AFB40F2063096
:101E500001F026FB40F21A5001F022FB40F20E6026
:101E600001F01EFB00216448FFF7F6FD00216348E6
:101E7000FFF7A4FD40F20A3001F012FB0121604897
:101E8000FFF7EAFD03215F48FFF7E6FD05215E4805
:101E9000FFF794FD40F20E5001F002FB01215B4878
:101EA000FFF7DAFD07215A48FFF7D6FD032159480D
:101EB000FFF784FD40F2025001F0F2FA012156488A
:101EC000FFF7CAFD07215548FFF7C6FD0321544817
:101ED000FFF774FD4FF4407001F0E2FA0121514820
:101EE000FFF7BAFD07215048FFF7B6FD03214F4821
:101EF000FFF764FD00214E48FFF760FD4D48FEF7F7
:101F0000D7FD01220D21194801F0D9FAFEF704FE90
:101F100001224949154801F0D2FA144B1B69134AB2
:101F200043F400531361FEF70FFE012243490F48AB
:101F300001F0C5FA0D4BD3F870310C4A23F400437D
:101F4000C2F87031094BD3F87031084A23F400030A
:101F5000C2F87031054B1B6F044A43F400531367FA
:101F6000FEF700FE014BD3F8A03069E000800D4081
:101F700000366E0100C00F40186C00801439001448
:101F800014EA00041468008010E0004014FB008094
:101F90001CE0078024EB00801C30008024F00080CF
:101FA0001C3100801CF700801C7D00803CEB008011
:101FB0003C69008018FA0080186400802479008051
:101FC000186E008028E6008028E007801C6A0080E8
:101FD0002CE600802CE007801C6C008028F6008036
:101FE00028F007801C6E008038F3078038320080AC
:101FF00020E207802068008024E0078024260080FB
:1020000038EC008018F7008038EF008030F900804D
:1020100030F600803074008030EC008030E90080C1
:102020003067008028E9008028F900802073008054
:102030000C200080584100000D0010000D007000C1
:10204000564A43F48033C2F8A030544BD3F8703171
:10205000524A23F04043C2F87031504BD3F8A030BD
:102060004E4A43F40053C2F8A0304D48FEF788FDB5
:102070004A4BD3F8E030494A23F48023C2F8E030D9
:1020800001224849454801F01AFAFEF751FD0122A4
:102090004549424801F013FA404B1B6A3F4A43F45A
:1020A0000053136203214148FFF788FC0021404898
:1020B000FFF784FC00213F48FFF780FC00213E48E9
:1020C000FFF77CFC354BD3F86031344A23F01F0313
:1020D000C2F86031394B1B6E384A23F07003136627
:1020E000364B1B6E23F00F03344A43F00103136693
:1020F000324B1B6E314A23F4600313662F4B1B6E69
:1021000023F4F8132D4A43F4901313662B4B1B6EE4
:102110002A4A23F480731366284B1B6E274A23F048
:1021200080031366254B1B6E244A23F080731366CD
:1021300000220021224801F0E9F900220321204871
:1021400001F0E4F9002206211D4801F0DFF9002228
:1021500008211B4801F0DAF900220A21184801F091
:10216000D5F9002200211648FFF72AFD00224FF47E
:1021700000511348FFF700FD114B5B69104A23F033
:10218000805353610E4B5B690D4A23F0005353613A
:102190000C4B0D4A1A6000BF80BD00BF00800D408F
:1021A000604100000D00E0000D002000187200806A
:1021B00014390014186C00801C26008000C00F40E9
:1021C00000C00A409C410000001BB70080B586B0EB
:1021D00000AF03460A46FB8013467B71B7F9063011
:1021E0001B0A7B61FB8803F01F033B617B69062BA5
:1021F00002D90D4800F044F87B699A000B4B134458
:10220000FB60FB681A6803213B6901FA03F3DB43B7
:102210001A4079793B6901FA03F31A43FB681A60A3
:1022200000BF1837BD4680BDE440000068C00F40C5
:1022300080B584B002AF40F2024001F0B0F9012352
:102240003B7100237B710023BB713B1D1A460921A2
:102250000848FEF7C7FF00230193074B00930023B4
:1022600000220521054801F0A9F900BF0837BD4645
:1022700080BD00BF00801B40D0821F40E0801F4017
:1022800010B50F4904460F4801F0C5FA0C49204625
:1022900001F0C1FA0C49D1F88030013B002BC1F8A4
:1022A000803008DB8B6F5A1C8A670A221A70BDE8DF
:1022B000104000F00BB878310A2001F0CBF9F6E7B6
:1022C0004842000068410000D04100001820014948
:1022D000ABBE7047260002002DE9F041D568576972
:1022E000EB0280460E46144605D5384601F052FCF6
:1022F00045F01005A061124B2B408BB1A169384607
:1023000001F05AFC002806DAE36843F08003E3603A
:102310004FF0FF3011E025F4003525F01005E560A1
:1023200032464146384601F053FC20F00041761A0F
:10233000A1690E44A6610028E6D1BDE8F08100BF86
:1023400010000200F8B5304E3468002851D100204A
:10235000F8BD2368B3F1805F39D1D4E9013252B1BD
:102360001168B1F1805F06D1516803330B4463609B
:102370009368A360F1E7AB4207DB9E4505DB20468F
:102380004FF0005340F80C3BE2E7634511D920467B
:102390004FF00051656040F80C1B5B1B00EB8501A2
:1023A000A160033B4FF0805440F82540C1E9013261
:1023B000CEE762B9A0EB830000F016F90130C6D079
:1023C0004FF00053C4E9003504F10C00C0E7274684
:1023D000A468002CBDD10C3000F006F9431CB6D027
:1023E0004FF00053C0E90035846057B930600C30BD
:1023F000AEE7C31C9D08002705F10A0C05F1030E8A
:10240000E7E7B860F3E700BF8842000010B5FFF7C8
:1024100099FF044628B90449172201F0D9FBFFF7B8
:1024200055FF204610BD00BF7D4100002DE9F84357
:10243000C6683D4B334004460D4690461BB9022703
:102440003846BDE8F883D0F81490484601F0A8FB60
:1024500007460028F3D1B8F1010F2CD0B8F1020FD4
:102460002ED0B8F1000FEAD1002DE8DBB00404D57E
:102470002368E26A9A4238BFE362A169A9420EDC8E
:102480002368E26A934238BF134622695818801ABB
:10249000A84204DB206B01EB000CAC4534DC0023CC
:1024A000C4E9013346F02006A56226F4032626F08F
:1024B0004006E660C4E7204600F038F80544D3E75C
:1024C000484601F067FBB0F1000CE26804DA42F024
:1024D0008002E2600127B3E723681846A369194622
:1024E000E36A98422CBF0918C9180B462169920665
:1024F000A3EB010303D5A26A9342B8BF1346634519
:10250000ACBFED186544AFE76D1AB10744BF281A98
:10251000A060F10744BF9B1AEB1A154448BF6360E3
:10252000256026F02006C0E703001000C3689A0764
:1025300005D10E4B21221A604FF0FF30704703F097
:1025400020021B0309D512B1806A01387047036865
:10255000826900691344181AF7E70AB1806A704764
:102560000368826900691344181A70478C4200009E
:1025700010B5174A1749002001F0A8F94FF48073ED
:102580004FF480620021124801F05BF9124A1349AE
:10259000012001F09BF94FF480730F484FF48062E3
:1025A000002101F04EF90E4B1B68022B0EDD0D4A87
:1025B0000A49022001F08AF9BDE8104009484FF4A9
:1025C00080734FF48062002101F03BB910BD00BF61
:1025D000D0410000954100000C42000097410000EE
:1025E000644100004842000070B50B4D2B680BB9E8
:1025F0000A4B2B6003302E6820F00304344420463D
:1026000000F032F810B92C60304670BD044B0C223B
:102610001A604FF0FF36F7E784420000AC4200003A
:102620008C420000F7B5044698B103B0BDE8F04015
:1026300001F0B6B907FB046001F0B2F9002818BF39
:102640004FF0FF350134019BA342F3DC284603B071
:10265000F0BD034B034E1B68019305463C27F2E790
:1026600064410000D0410000044B23B1984234BFC4
:102670000020012070471846704700BFAC52000090
:1026800080B586B000AFF860B9603B601346FB715F
:1026900000237B6100237B611CE0BB681B68013366
:1026A0007F2B08D9BB681B681946F868FDF75EFEEA
:1026B000BB6800221A60BB681B681A46FB6813449B
:1026C000FA791A70BB681B685A1CBB681A607B6970
:1026D00001337B617A693B689A42DEDB00BF00BF51
:1026E0001837BD4680BD80B485B000AF78603960D2
:1026F0000023FB600023FB7220E07B681B685A1CF0
:102700007B681A607B681B681B78BB72BB7A2F2BB7
:102710000DD9BB7A392B0AD8FA6813469B001344AB
:102720005B001A46BB7A1344303BFB6006E07B68D3
:102730001B685A1E7B681A600123FB72FB7A002B10
:10274000DBD0FB6818461437BD465DF8047B704744
:1027500080B489B000AFF860B9607A60FB681B682C
:10276000FB610623BB610023FB75FB690133FB6141
:10277000FB691B782E2B24D10023BB610023FB7542
:102780001BE0FB690133FB61FB691B78BB75BB7DFB
:102790002F2B0DD9BB7D392B0AD8BA6913469B0064
:1027A00013445B001A46BB7D1344303BBB6104E01D
:1027B000FB69013BFB610123FB75FB7D002BE0D036
:1027C00002E0FB69013BFB61FB68FA691A60BB69C7
:1027D00018462437BD465DF8047B704780B485B049
:1027E00000AF0346FB710023FB60FB796F2B08D021
:1027F000FB79622B05D0FB79702B02D0FB79752B0E
:1028000001D10123FB60FB6818461437BD465DF813
:10281000047B704780B485B000AF0346FB71002392
:10282000FB60FB79642B02D0FB79692B01D101237A
:10283000FB60FB6818461437BD465DF8047B7047A3
:1028400090B585B000AFF860B9607A60FB70BA6887
:102850007B68D31A7C6A2022F96AB86AA04708E02C
:102860003B6A5A1E3A621A787C6A0123F96AB86A8E
:10287000A0473B6A1B78002BF2D100BF00BF143782
:10288000BD4690BD90B585B000AFF860B9607A6084
:10289000FB70BA687B68D31A7C6A2022F96AB86A2E
:1028A000A04708E03B6A5A1E3A621A787C6A012304
:1028B000F96AB86AA0473B6A1B78002BF2D100BFC7
:1028C00000BF1437BD4690BD80B485B000AF03464D
:1028D000FB710023FB60FB79662B02D0FB79462B52
:1028E00001D10123FB60FB6818461437BD465DF833
:1028F000047B704780B485B000AF0346FB710023B2
:10290000FB60FB79782B02D0FB79582B01D1012396
:10291000FB60FB6818461437BD465DF8047B7047C2
:1029200080B485B000AF0346FB71FB796F2B02D1F9
:102930000823FB730DE0FB79622B02D10223FB73AA
:1029400007E0FB79702B02D11023FB7301E00A230F
:10295000FB73FB7B18461437BD465DF8047B70475C
:1029600080B48FB000AFF860B9607A603B6000233C
:102970007B62FB683B623B6A5A1C3A6200221A7017
:102980007B68002B37D0BB681B687B637B6B002B9D
:102990002DD13B6A30221A707B6A01337B627B6ADD
:1029A00064E07A6B3B6892FBF3F3BB61BB693A6806
:1029B00002FB03F37A6BD31A3B633B6B002B08DA01
:1029C0003B6BBB62BB6ADB437B617B6931333B633F
:1029D00002E03B6B30333B63BB697B633B6A5A1C51
:1029E0003A623A6BD2B21A707B6A01337B627B6BBC
:1029F000002BD6D139E0BB681B68FB62FB6A002B59
:102A000030D13B6A30221A707B6A01337B627B6A69
:102A10002CE03B68FA6AB2FBF3F3FB613B68FA69AE
:102A200002FB03F3FA6AD31ABB62BB6A092B03D811
:102A3000BB6A3033BB620AE097F84030002B01D00C
:102A4000412200E06122BB6A13440A3BBB62FB697E
:102A5000FB623B6A5A1C3A62BA6AD2B21A707B6A4B
:102A600001337B62FB6A002BD3D17B6A18463C376B
:102A7000BD465DF8047B704790B59FB004AFF86029
:102A8000B9607A603B600023FB650023BB650023CF
:102A9000FB61002387F8573000237B61FB687B6470
:102AA0007B6C1B78002B00F024817B6C1B7887F8F3
:102AB000563097F85630252B0BD097F8562007F153
:102AC0001C013C6801237868A0477B6C01337B6460
:102AD0000EE1012387F8633007F1080207F1440390
:102AE00011461846FFF7FFFD386507F1080107F1A9
:102AF000440300221846FFF72BFEF8647B6C013379
:102B00007B647B6C1B7887F8563097F856301846F4
:102B1000FFF780FE0346012B25D1BB681A1DBA6062
:102B20001B68BB6107F1180107F1200097F86330BB
:102B300000930A230122FFF713FFB86507F1200273
:102B4000BB6D1344FB65BA6D07F11C0303937B68EF
:102B500002933B680193FB6D00930023396D0020C5
:102B6000FFF76EFEC1E097F856301846FFF7ACFE4F
:102B70000346012B06D1BB68073323F00703083354
:102B8000BB60B2E097F856301846FFF7B3FE034635
:102B9000012B2ED197F85630782B02D1002387F8DD
:102BA0006330BB681A1DBA601B687B6107F11401B2
:102BB00007F1200097F86330009310230022FFF7FD
:102BC000CFFEB86507F12002BB6D1344FB65BA6DFB
:102BD00097F8631007F11C0303937B6802933B682B
:102BE0000193FB6D00930B46396D0020FFF74AFE01
:102BF0007BE097F856301846FFF7F0FD0346012BAF
:102C00002FD1BB681A1DBA601B687B6197F85630DC
:102C10001846FFF785FE034687F8573097F8572088
:102C200007F1140107F1200097F863300093134671
:102C30000022FFF795FEB86507F12002BB6D134433
:102C4000FB65BA6D07F11C0303937B6802933B6835
:102C50000193FB6D00930023396D0020FFF7F0FD19
:102C600043E097F85630632B0DD1BB681A1DBA604C
:102C70001B68BB64BB6CDAB207F11C013C68012322
:102C80007868A04731E097F85630732B25D1BB68A0
:102C90001A1DBA601B687B667B6E002B25D0786E90
:102CA00000F0EEFD0346BB653A6DBB6DD31A07F12C
:102CB0001C013C6820227868A04709E07B6E5A1C02
:102CC0007A661A7807F11C013C6801237868A047EE
:102CD0007B6E1B78002BF1D107E097F8562007F1A7
:102CE0001C013C6801237868A0477B6C01337B643E
:102CF000D6E600BFFB6918466C37BD4690BD08B5E7
:102D0000FDF733FB08BD08B5FDF72FFB08BD08B57F
:102D1000FDF72BFB08BD08B5FDF727FB08BD08B57F
:102D2000FDF723FB08BD08B5FDF71FFB08BD08B57F
:102D3000FDF71BFB08BD08B5FDF717FB08BD08B57F
:102D4000FDF713FB08BD08B5FDF70FFB08BD08B57F
:102D5000FDF70BFB08BD08B5FDF707FB08BD08B57F
:102D6000FDF703FB08BD08B5FDF7FFFA08BD08B580
:102D7000FDF7FBFA08BD08B5FDF7F7FA08BD08B581
:102D8000FDF7F3FA08BD08B5FDF7EFFA08BD08B581
:102D9000FDF7EBFA08BD08B5FDF7E7FA08BD08B581
:102DA000FEF74EFB08BD08B5FEF75EFB08BD08B593
:102DB000FEF76EFB08BD08B5FEF77EFB08BD08B543
:102DC000FEF78EFB08BD08B5FEF79EFB08BD08B5F3
:102DD000FEF7AEFB08BD08B5FEF7BEFB08BD08B5A3
:102DE000FDF7C3FA08BD08B5FDF7BFFA08BD08B581
:102DF000FDF7BBFA08BD08B5FDF7B7FA08BD08B581
:102E0000FDF7B3FA08BD08B5FDF7AFFA08BD08B580
:102E1000FDF7ABFA08BD08B5FDF7A7FA08BD08B580
:102E2000FDF7A3FA08BD08B5FDF79FFA08BD08B580
:102E3000FDF79BFA08BD08B5FDF797FA08BD08B580
:102E4000FDF793FA08BD08B5FDF78FFA08BD08B580
:102E5000FDF78BFA08BD08B5FDF787FA08BD08B580
:102E6000FDF783FA08BD08B5FDF77FFA08BD08B580
:102E7000FDF77BFA08BD08B5FDF777FA08BD08B580
:102E8000FDF773FA08BD08B5FDF76FFA08BD08B580
:102E9000FDF76BFA08BD08B5FDF767FA08BD08B580
:102EA000FDF763FA08BD08B5FDF75FFA08BD08B580
:102EB000FDF75BFA08BD08B5FDF757FA08BD08B580
:102EC000FDF753FA08BD08B5FDF74FFA08BD08B580
:102ED000FDF74BFA08BD08B5FDF747FA08BD08B580
:102EE000FDF743FA08BD08B5FDF73FFA08BD08B580
:102EF000FDF73BFA08BD08B5FDF737FA08BD08B580
:102F0000FDF733FA08BD08B5FDF72FFA08BD08B57F
:102F1000FDF72BFA08BD08B5FDF727FA08BD08B57F
:102F2000FDF723FA08BD08B5FDF71FFA08BD08B57F
:102F3000FDF71BFA08BD08B5FDF717FA08BD08B57F
:102F4000FDF713FA08BD08B5FDF70FFA08BD08B57F
:102F5000FDF70BFA08BD08B5FDF707FA08BD08B57F
:102F6000FDF703FA08BD08B5FDF7FFF908BD08B580
:102F7000FDF7FBF908BD08B5FDF7F7F908BD08B581
:102F8000FDF7F3F908BD08B5FDF7EFF908BD08B581
:102F9000FDF7EBF908BD08B5FDF7E7F908BD08B581
:102FA000FDF7E3F908BD08B5FDF7DFF908BD08B581
:102FB000FDF7DBF908BD08B5FDF7D7F908BD08B581
:102FC000FDF7D3F908BD08B5FDF7CFF908BD08B581
:102FD000FDF7CBF908BD08B5FDF7C7F908BD08B581
:102FE000FDF7C3F908BD08B5FDF7BFF908BD08B581
:102FF000FDF7BBF908BD08B5FDF7B7F908BD08B581
:10300000FDF7B3F908BD08B5FDF7AFF908BD08B580
:10301000FDF7ABF908BD08B5FDF7A7F908BD08B580
:10302000FDF7A3F908BD08B5FDF79FF908BD08B580
:10303000FDF79BF908BD08B5FDF797F908BD08B580
:10304000FDF793F908BD08B5FDF78FF908BD08B580
:10305000FDF78BF908BD08B5FDF787F908BD08B580
:10306000FDF783F908BD08B5FDF77FF908BD08B580
:10307000FDF77BF908BD08B5FDF777F908BD08B580
:10308000FDF773F908BD08B5FDF76FF908BD08B580
:10309000FDF76BF908BD08B5FDF767F908BD08B580
:1030A000FDF763F908BD08B5FDF75FF908BD08B580
:1030B000FDF75BF908BD08B5FDF757F908BD08B580
:1030C000FDF753F908BD08B5FDF74FF908BD08B580
:1030D000FDF74BF908BD08B5FDF747F908BD08B580
:1030E000FDF743F908BD08B5FDF73FF908BD08B580
:1030F000FDF73BF908BD08B5FDF737F908BD08B580
:10310000FDF733F908BD08B5FDF72FF908BD08B57F
:10311000FDF72BF908BD08B5FDF727F908BD08B57F
:10312000FDF723F908BD08B5FDF71FF908BD08B57F
:10313000FDF71BF908BD08B5FDF717F908BD08B57F
:10314000FDF713F908BD08B5FDF70FF908BD08B57F
:10315000FDF70BF908BD08B5FDF707F908BD08B57F
:10316000FDF703F908BD08B5FDF7FFF808BD08B580
:10317000FDF7FBF808BD08B5FDF7F7F808BD08B581
:10318000FDF7F3F808BD08B5FDF7EFF808BD08B581
:10319000FDF7EBF808BD08B5FDF7E7F808BD08B581
:1031A000FDF7E3F808BD08B5FDF7DFF808BD08B581
:1031B000FDF7DBF808BD80B582B000AF0346FB80A9
:1031C000B7F9063013F1800F01D1012305E0B7F9FB
:1031D00006301846FDF738F9002318460837BD4673
:1031E00080BD80B483B000AF786039607B683A6896
:1031F000C3F88C2000BF0C37BD465DF8047B7047D8
:1032000080B485B000AFF8600B467A60FB72FB7A41
:10321000FA681B01134403F584731968FB7A7A6812
:103220000A43F9681B010B4403F584731A6000BF5D
:103230001437BD465DF8047B704780B483B000AF9F
:1032400078600B46FB70FB787A681B01134403F52A
:1032500086731B6803F0010318460C37BD465DF802
:10326000047B704780B485B000AFF8600B467A608D
:10327000FB72FB7AFA681B01134403F586737A68C4
:103280001A6000BF1437BD465DF8047B704780B4F8
:1032900085B000AFF8600B467A60FB72FB7AFA6883
:1032A00010331B0113447A681A6000BF1437BD46FF
:1032B0005DF8047B704780B483B000AF78600B4644
:1032C000FB70FB787A681B01134403F584731A685A
:1032D000FB7842F0010279681B010B4403F584730B
:1032E0001A6000BF0C37BD465DF8047B70470420B0
:1032F0007146084202D0EFF3098001E0EFF3088045
:1033000081690A884BF6AB639A4200D0FEE702312E
:10331000816120210160704700BF80B400AF4FF48D
:1033200000431846BD465DF8047B704780B483B007
:1033300000AF786039603B681B0CC3F30B027B68FD
:1033400013441B6803F48033002B14BF01230023B4
:10335000DBB218460C37BD465DF8047B704780B47D
:1033600083B000AF786039603B681B0CC3F30B027D
:103370007B6813441A683B6803F01F0322FA03F3C7
:1033800003F00103002B14BF01230023DBB2184616
:103390000C37BD465DF8047B704780B582B000AF46
:1033A000786039603B681B0CC3F30B027B681344E5
:1033B0001B689B0B03F00303002B03D1FDF75EF9A1
:1033C000034600E0002318460837BD4680BD80B59F
:1033D00082B000AF0346FB80B7F9063003211846E0
:1033E000FDF7A8FE00BF0837BD4680BD80B584B09C
:1033F00000AFF860B9601346FB71FB791A46B968F3
:10340000F868FDF76BFF00BF1037BD4680BD80B583
:1034100082B000AF0346FB80B7F90630032118469F
:10342000FEF7AEF800BF0837BD4680BD80B400AFE0
:1034300000BFBD465DF8047B704780B586B000AF25
:10344000F860B9607A603B6043F22153FB82FB680D
:103450001B7B012B08D1FB6808333A687968184652
:10346000FEF780FA0346FB82FB8A18461837BD46F2
:1034700080BD80B584B000AFF860B9607A607A68CA
:10348000B968F868FEF738FA034618461037BD46A3
:1034900080BD80B400AF00BFBD465DF8047B7047BF
:1034A00080B582B000AF0346FB80B7F9063000213B
:1034B0001846FEF71FFB00BF0837BD4680BD80B42D
:1034C00085B000AFF860B9601346FB71FB79002B43
:1034D0000BD0BB681B0CC3F30B02FB681344043313
:1034E0001A464FF4803313600AE0BB681B0CC3F329
:1034F0000B02FB68134408331A464FF48033136001
:1035000000BF1437BD465DF8047B704780B485B0BA
:1035100000AF78600B46FB701346BB70FB78032B43
:1035200012D97B685A68FB78032101FA03F3DB4365
:103530001340FB60BB7803F00302FB789A40FB6802
:103540001A437B685A6011E07B685A68FB78072150
:1035500001FA03F3DB431340FB60BB7803F007027F
:10356000FB789A40FB681A437B685A6000BF1437A7
:10357000BD465DF8047B704780B500AFFEF742FBA7
:1035800000BF80BD80B400AF00BFBD465DF8047BC6
:10359000704780B500AFFFF7F5FF00BF80BD80B575
:1035A00082B000AF0346FB80B7F90630032118460E
:1035B000FEF70CFE00BF0837BD4680BD80B485B065
:1035C00000AFF860B9607A603B60BB6803F0070148
:1035D000FB691B0103F01002FB680A431A607B6859
:1035E000002B02D07B683A681A6000BF1437BD46D2
:1035F0005DF8047B704780B500AFFEF719FE00BF91
:1036000080BD08B5FEF7B4FFBDE80840FCF7E6BF93
:1036100000F0A1BAC368826923F0200310B5C3602B
:10362000836A9A4204460ED000F0B4F8E36823F4AB
:10363000405323F0100343F01003E360A36AA36137
:103640002369E3622360E36823F4804323F04003AB
:10365000E36010BDCB6823F4002270B50C46CA604D
:103660009906054602D52046FFF7D4FFD4E9023675
:103670005A1C10DAB0050ED4C3F1FF2303F57F0303
:10368000FE33A360236846F490365A1CE66022603D
:103690001D70E8B270BD41F28A023240022A07D0A2
:1036A000002346F08006A360E6604FF0FF30F1E7AC
:1036B0004AF210033340B3F5004F0AD100212046EF
:1036C000FEF7B4FEE368990602D52046FFF7A2FF95
:1036D000E66846F4903316F4706FE3600ED16069CB
:1036E00000F05EFA00B372051ED504F124032361D5
:1036F00023600123E36146F49233E36013F4106F17
:103700002168266926D0E36A99422CBFC6EB0101E5
:10371000C6EB0301B9B9731CE3622360E369236359
:103720005A1EA2603570B4E74FF48070FEF76EFE4B
:10373000E26820614FF48073E36146F494331A43E6
:103740002060E260DAE722463046FEF7C5FD002839
:10375000E1D0AAE74A1CEDB222600D70E26A21684E
:1037600091422CBFC6EB0101C6EB0201E269226364
:103770005B0503D40A2D01D08A4209DC0023E662EE
:103780002660A36022463046FEF7A6FD00288CD1B5
:1037900028467FE738B501680569C36A0446C068F2
:1037A00020F40022E26000F08202022A02D04FF0F0
:1037B000FF3038BD10F48030FBD0994238BF194635
:1037C0008D4208D1E368E562002023F48033256050
:1037D000A060E360EDE72246491B2846FEF77CFD2A
:1037E0000028EFD0E3E7A8B14FF0805340F80C3C3D
:1037F00050F8042C72B11368B3F1805F0AD150F80D
:10380000083C516803330B4440F8083C936840F887
:10381000043CEDE7704738B505460C4615F8010B3A
:1038200070B1A368013B002BA36004DB23685A1C22
:1038300022601870F2E72146FFF70CFF431CEDD120
:1038400038BD70B5C468A50708D0B2F5007F11D0A7
:10385000B2F5806F04D0B2F5807F0BD0012008E074
:1038600000F124010123224301610160C361C260B0
:10387000002070BD5E1E6FF07F45AE42F3D3EDE7D2
:1038800010B5421C8307044616D1234654F8041B86
:10389000A1F1013020EA010010F0803FF5D011F0D5
:1038A000FF0F11D011F47F4F0CD011F47F0F14BF14
:1038B00023460333981A04E010F8013B002BE1D1B2
:1038C000801A10BD0233F5E70133F3E770B50D46FA
:1038D00006461046144600F02DF82B78722B17D0B0
:1038E000772B18D0612B23D1082348F2020215F858
:1038F000011F2B2912D0622915D01B07E2606661D7
:1039000004D5022200212046FEF790FD204670BD1E
:1039100000230122EBE704230222E8E742F003023E
:1039200043F00203E3E742F0040243F00103DEE761
:103930000024EBE7F0B5C468A10789B0054622D0A2
:10394000220718D4D0E90467FEF76CFE384600F071
:103950001BF9230502D53046FFF745FFA40DA4054A
:1039600014F1A54F07D1296A2022684600F02AF9F0
:10397000684600F00BF83C2200212846FFF748FE7D
:10398000002009B0F0BD4FF0FF30FAE710B5044653
:10399000FFF776FF01462046BDE8104000F006B96B
:1039A000C36870B513F00306044611D09B0611D509
:1039B000856AFFF72FFEE36823F44053E360204657
:1039C000FFF7E8FE0022064629462046FEF72EFDB8
:1039D000304670BD816905680D4401696D1AEAE7DA
:1039E0005FF0000C30B51C0022D112006FD0914264
:1039F00006D305460846002100F06FF80446284625
:103A000000F06BF80A462146BDE830401CF0404FFC
:103A100008BF704703D54942404261F100015FEAA7
:103A20008C0C38BF70475B42524263F10003704711
:103A300042D41C0C04BF1B040CF1100C13F07F4F7C
:103A400004BF1B020CF1080C13F0704F04BF1B01E4
:103A50000CF1040C13F0404F04BF0CF1020C5FEAB0
:103A600083035CBF0CF1010C5B00CCF1200E22FA49
:103A70000EF4234302FA0CF200FA0CF520FA0EF0D1
:103A800001FA0CF4204321FA0EF114461A4600F014
:103A900024F8A4FB0023AA1A71EB03033CBF1B19F3
:103AA0000138CCF1200E22FA0CF203FA0EF4224374
:103AB00023FA0CF30021A7E7821A71EB03033CBF42
:103AC00002460B464FF0000141F100009CE7002048
:103AD0000021BDE8304000F03DB80423B1EB122FC7
:103AE00009D2090241EA10610002013B08BF704798
:103AF000B1EB122FF5D30018494134BF9142891A16
:103B00004041494134BF9142891A4041494134BF43
:103B10009142891A4041494134BF9142891A40413A
:103B2000494134BF9142891A4041494134BF9142D1
:103B3000891A4041494134BF9142891A4041494163
:103B400034BF9142891A4041A3F1010313F00F0FD2
:103B5000D2D170477047034613F0030F0ED101F026
:103B6000FF0141EA012141EA0141043A24BF43F83F
:103B7000041BB2F10402F9D202F10402013A24BF9B
:103B800003F8011BFAE7704703B469460220ABBE95
:103B900002B0704703B469460C20ABBE02B0704758
:103BA00003B469460920ABBE02B0704703B469464E
:103BB0000E20ABBE02B0704703B469460A20ABBE0C
:103BC00002B070470FB469460D20ABBE04B0704719
:103BD0000FB469460520ABBE04B070472E66736C07
:103BE0005F64656275675F636F6E736F6C652E638C
:103BF0003A343932203A204E554C4C20213D206336
:103C0000680000002E66736C5F64656275675F63B1
:103C10006F6E736F6C652E633A343933203A2030FF
:103C20005520213D2073697A6500FFFF433A5C55BA
:103C3000736572735C65647A5C446F63756D656E01
:103C400074735C4D43555870726573736F49444586
:103C50005F31312E322E315F343134395C776F72FF
:103C60006B73706163655C494D5852543130353027
:103C70005F44656D6F5C647269766572732F6673FD
:103C80006C5F7069742E683A313037203A204E5597
:103C90004C4C20213D20636F6E66696700FFFFFF7B
:103CA00048656C6C6F20576F726C640A00FFFFFFF1
:103CB0002E66736C5F636C6F636B2E633A313631C3
:103CC000203A20216279706173735874616C4F736C
:103CD0006300FFFF2E66736C5F636C6F636B2E6314
:103CE0003A393534203A2066616C73650000000073
:103CF0002E66736C5F636C6F636B2E633A39373477
:103D0000203A2066616C7365000000002E66736CBB
:103D10005F636C6F636B2E633A31303139203A2028
:103D200066616C73650000002E66736C5F636C6F78
:103D3000636B2E633A31303339203A2066616C73FD
:103D40006500FFFF40787D0180F0FA0200E1F50593
:103D5000405973072E66736C5F636C6F636B2E68DC
:103D60003A31303438203A20696E646578203C3D21
:103D70002036554C00FFFFFF0000000000801B4074
:103D800000C01B4000001C4000401C4000000C40D4
:103D9000FFFF1A011E001A020C031E012E66736C2F
:103DA0005F6770696F2E633A3537203A20696E730A
:103DB00074616E6365203C2041525241595F534902
:103DC0005A4528735F6770696F4261736573290094
:103DD0002E66736C5F6770696F2E633A31313320E2
:103DE0003A2070696E203C20333255002E66736C89
:103DF0005F6C70756172742E633A383237203A20E6
:103E00004E554C4C20213D206461746100FFFFFF42
:103E10002E66736C5F7069742E633A3535203A20D4
:103E2000696E7374616E6365203C20415252415942
:103E30005F53495A4528735F7069744261736573B3
:103E40002900FFFF2E66736C5F7069742E633A372A
:103E500030203A204E554C4C20213D20636F6E6639
:103E6000696700FF00000000004018400080184013
:103E700000C018400000194000401940008019405F
:103E800000C0194000001A402E6C70756172745F9A
:103E9000616461707465722E633A333536203A205E
:103EA00068616E646C6500002E6C70756172745F81
:103EB000616461707465722E633A333537203A203D
:103EC00064617461000000002E6C70756172745F33
:103ED000616461707465722E633A333538203A201C
:103EE0006C656E67746800FF2E73657269616C5F44
:103EF0006D616E616765722E633A373933203A20FF
:103F0000777269746548616E646C65002E736572C2
:103F100069616C5F6D616E616765722E633A3739F6
:103F200034203A2062756666657200002E736572F1
:103F300069616C5F6D616E616765722E633A3739D6
:103F400035203A206C656E67746800002E736572C8
:103F500069616C5F6D616E616765722E633A3830BE
:103F600030203A2068616E646C6500FF2E736572C4
:103F700069616C5F706F72745F756172742E633A01
:103F8000323637203A2073657269616C48616E641D
:103F90006C6500002E73657269616C5F706F72747E
:103FA0005F756172742E633A323638203A2062753A
:103FB00066666572000000002E73657269616C5F51
:103FC000706F72745F756172742E633A3236392085
:103FD0003A206C656E67746800FFFFFF433A5C55DA
:103FE000736572735C65647A5C446F63756D656E4E
:103FF00074735C4D43555870726573736F494445D3
:104000005F31312E322E315F343134395C776F724B
:104010006B73706163655C494D5852543130353073
:104020005F44656D6F5C647269766572732F667349
:104030006C5F636C6F636B2E683A393737203A20B8
:10404000627573795368696674203C3D2043434D23
:104050005F4E4F5F425553595F5741495400FFFF30
:10406000433A5C55736572735C65647A5C446F6354
:10407000756D656E74735C4D4355587072657373DE
:104080006F4944455F31312E322E315F343134393E
:104090005C776F726B73706163655C494D58525405
:1040A000313035305F44656D6F5C6472697665727E
:1040B000732F66736C5F636C6F636B2E683A31307D
:1040C0003134203A20627573795368696674203CF4
:1040D0003D2043434D5F4E4F5F425553595F57411B
:1040E000495400FF433A5C55736572735C65647AAA
:1040F0005C446F63756D656E74735C4D43555870A9
:10410000726573736F4944455F31312E322E315FD2
:10411000343134395C776F726B73706163655C49FD
:104120004D585254313035305F44656D6F5C647268
:1041300069766572732F66736C5F636C6F636B2E49
:10414000683A31303438203A20696E646578203C12
:104150003D2036554C00FFFF6200000000000000CB
:1041600001010100030000002A2A2A2061737365FF
:104170007274206661696C6564203A20002A2A2ADC
:10418000205F437379735F616C6C6F632066616954
:0C4190006C65640A0072007700FFFFFFFE
:04419C0000A4781FE4
:04000003000002DD1A
:00000001FF
